{
  "address": "0xde2568192B20A57dE387132b54C3fa492E334837",
  "abi": [
    {
      "inputs": [
        {
          "internalType": "address",
          "name": "_trustedForwarder",
          "type": "address"
        }
      ],
      "stateMutability": "nonpayable",
      "type": "constructor"
    },
    {
      "anonymous": false,
      "inputs": [
        {
          "indexed": false,
          "internalType": "bytes32",
          "name": "sessionKey",
          "type": "bytes32"
        }
      ],
      "name": "SetSession",
      "type": "event"
    },
    {
      "inputs": [
        {
          "internalType": "string",
          "name": "_sessionId",
          "type": "string"
        },
        {
          "internalType": "uint256",
          "name": "_duration",
          "type": "uint256"
        },
        {
          "internalType": "address",
          "name": "_tmpPublicKey",
          "type": "address"
        }
      ],
      "name": "createSession",
      "outputs": [],
      "stateMutability": "nonpayable",
      "type": "function"
    },
    {
      "inputs": [
        {
          "internalType": "address",
          "name": "_target",
          "type": "address"
        },
        {
          "internalType": "bytes",
          "name": "_data",
          "type": "bytes"
        },
        {
          "internalType": "uint256",
          "name": "_value",
          "type": "uint256"
        },
        {
          "internalType": "string",
          "name": "_sessionId",
          "type": "string"
        }
      ],
      "name": "executeCall",
      "outputs": [],
      "stateMutability": "nonpayable",
      "type": "function"
    },
    {
      "inputs": [
        {
          "internalType": "address",
          "name": "forwarder",
          "type": "address"
        }
      ],
      "name": "isTrustedForwarder",
      "outputs": [
        {
          "internalType": "bool",
          "name": "",
          "type": "bool"
        }
      ],
      "stateMutability": "view",
      "type": "function"
    },
    {
      "inputs": [
        {
          "internalType": "bytes32",
          "name": "",
          "type": "bytes32"
        }
      ],
      "name": "sessions",
      "outputs": [
        {
          "internalType": "uint256",
          "name": "end",
          "type": "uint256"
        },
        {
          "internalType": "address",
          "name": "user",
          "type": "address"
        },
        {
          "internalType": "address",
          "name": "tempPublicKey",
          "type": "address"
        }
      ],
      "stateMutability": "view",
      "type": "function"
    }
  ],
  "transactionHash": "0x0ca91dc8b133abe823d72ca1f9af7caf31ff1500ca719443b6d7ba8ba2d78cc1",
  "args": [
    "0xd8253782c45a12053594b9deB72d8e8aB2Fca54c"
  ],
  "numDeployments": 2,
  "solcInputHash": "9d867bdca3a043a84b3b14df6fdbfb36",
  "bytecode": "0x60a06040523480156200001157600080fd5b5060405162001588380380620015888339818101604052810190620000379190620000de565b808073ffffffffffffffffffffffffffffffffffffffff1660808173ffffffffffffffffffffffffffffffffffffffff1681525050505062000110565b600080fd5b600073ffffffffffffffffffffffffffffffffffffffff82169050919050565b6000620000a68262000079565b9050919050565b620000b88162000099565b8114620000c457600080fd5b50565b600081519050620000d881620000ad565b92915050565b600060208284031215620000f757620000f662000074565b5b60006200010784828501620000c7565b91505092915050565b60805161145d6200012b600039600060ef015261145d6000f3fe608060405234801561001057600080fd5b506004361061004c5760003560e01c8063572b6c05146100515780637dbd28321461008157806392e016df146100b3578063ebf1eed8146100cf575b600080fd5b61006b60048036038101906100669190610a6e565b6100eb565b6040516100789190610ab6565b60405180910390f35b61009b60048036038101906100969190610b07565b610143565b6040516100aa93929190610b5c565b60405180910390f35b6100cd60048036038101906100c89190610d05565b6101ad565b005b6100e960048036038101906100e49190610dd4565b61036c565b005b60007f000000000000000000000000000000000000000000000000000000000000000073ffffffffffffffffffffffffffffffffffffffff168273ffffffffffffffffffffffffffffffffffffffff16149050919050565b60006020528060005260406000206000915090508060000154908060010160009054906101000a900473ffffffffffffffffffffffffffffffffffffffff16908060020160009054906101000a900473ffffffffffffffffffffffffffffffffffffffff16905083565b6101b6336100eb565b6101f5576040517f08c379a00000000000000000000000000000000000000000000000000000000081526004016101ec90610ed5565b60405180910390fd5b6000836040516020016102089190610f66565b604051602081830303815290604052805190602001209050604051806060016040528084426102379190610fac565b815260200161024461067a565b73ffffffffffffffffffffffffffffffffffffffff1681526020018373ffffffffffffffffffffffffffffffffffffffff168152506000808381526020019081526020016000206000820151816000015560208201518160010160006101000a81548173ffffffffffffffffffffffffffffffffffffffff021916908373ffffffffffffffffffffffffffffffffffffffff16021790555060408201518160020160006101000a81548173ffffffffffffffffffffffffffffffffffffffff021916908373ffffffffffffffffffffffffffffffffffffffff16021790555090505061032f816106a5565b7fd7a664a405eb64bdf6a057784c4082ee88bc25bead56ac540c58c1a95550a0cb8160405161035e9190610fef565b60405180910390a150505050565b60008160405160200161037f9190610f66565b6040516020818303038152906040528051906020012090506000806000838152602001908152602001600020604051806060016040529081600082015481526020016001820160009054906101000a900473ffffffffffffffffffffffffffffffffffffffff1673ffffffffffffffffffffffffffffffffffffffff1673ffffffffffffffffffffffffffffffffffffffff1681526020016002820160009054906101000a900473ffffffffffffffffffffffffffffffffffffffff1673ffffffffffffffffffffffffffffffffffffffff1673ffffffffffffffffffffffffffffffffffffffff16815250509050610477336100eb565b6104b6576040517f08c379a00000000000000000000000000000000000000000000000000000000081526004016104ad90610ed5565b60405180910390fd5b600073ffffffffffffffffffffffffffffffffffffffff16816020015173ffffffffffffffffffffffffffffffffffffffff1603610529576040517f08c379a000000000000000000000000000000000000000000000000000000000815260040161052090611056565b60405180910390fd5b61053161067a565b73ffffffffffffffffffffffffffffffffffffffff16816040015173ffffffffffffffffffffffffffffffffffffffff16146105a2576040517f08c379a0000000000000000000000000000000000000000000000000000000008152600401610599906110c2565b60405180910390fd5b42816000015110156105e9576040517f08c379a00000000000000000000000000000000000000000000000000000000081526004016105e09061112e565b60405180910390fd5b6105fb6105f461067a565b603761073e565b600086868360200151604051602001610616939291906111c6565b6040516020818303038152906040529050600061066c89838860016040518060400160405280601c81526020017f53657373696f6e4b6579476174652e6578656375746543616c6c3a20000000008152506107da565b915050505050505050505050565b6000610685336100eb565b1561069957601436033560601c90506106a1565b3390506106a2565b5b90565b61073b816040516024016106b99190610fef565b6040516020818303038152906040527f27b7cf85000000000000000000000000000000000000000000000000000000007bffffffffffffffffffffffffffffffffffffffffffffffffffffffff19166020820180517bffffffffffffffffffffffffffffffffffffffffffffffffffffffff8381831617835250505050610874565b50565b6107d682826040516024016107549291906111f0565b6040516020818303038152906040527f8309e8a8000000000000000000000000000000000000000000000000000000007bffffffffffffffffffffffffffffffffffffffffffffffffffffffff19166020820180517bffffffffffffffffffffffffffffffffffffffffffffffffffffffff8381831617835250505050610874565b5050565b600060608673ffffffffffffffffffffffffffffffffffffffff1685876040516108049190611255565b60006040518083038185875af1925050503d8060008114610841576040519150601f19603f3d011682016040523d82523d6000602084013e610846565b606091505b5080925081935050508115801561085a5750835b1561086a576108698184610895565b5b9550959350505050565b60006a636f6e736f6c652e6c6f679050600080835160208501845afa505050565b6004602083516108a5919061129b565b036109a0576000826020015190506308c379a060e01b817bffffffffffffffffffffffffffffffffffffffffffffffffffffffff1916036109445760448301925081836040516020016108f99291906112cc565b6040516020818303038152906040526040517f08c379a000000000000000000000000000000000000000000000000000000000815260040161093b9190611329565b60405180910390fd5b816040516020016109559190611397565b6040516020818303038152906040526040517f08c379a00000000000000000000000000000000000000000000000000000000081526004016109979190611329565b60405180910390fd5b806040516020016109b19190611405565b6040516020818303038152906040526040517f08c379a00000000000000000000000000000000000000000000000000000000081526004016109f39190611329565b60405180910390fd5b6000604051905090565b600080fd5b600080fd5b600073ffffffffffffffffffffffffffffffffffffffff82169050919050565b6000610a3b82610a10565b9050919050565b610a4b81610a30565b8114610a5657600080fd5b50565b600081359050610a6881610a42565b92915050565b600060208284031215610a8457610a83610a06565b5b6000610a9284828501610a59565b91505092915050565b60008115159050919050565b610ab081610a9b565b82525050565b6000602082019050610acb6000830184610aa7565b92915050565b6000819050919050565b610ae481610ad1565b8114610aef57600080fd5b50565b600081359050610b0181610adb565b92915050565b600060208284031215610b1d57610b1c610a06565b5b6000610b2b84828501610af2565b91505092915050565b6000819050919050565b610b4781610b34565b82525050565b610b5681610a30565b82525050565b6000606082019050610b716000830186610b3e565b610b7e6020830185610b4d565b610b8b6040830184610b4d565b949350505050565b600080fd5b600080fd5b6000601f19601f8301169050919050565b7f4e487b7100000000000000000000000000000000000000000000000000000000600052604160045260246000fd5b610be682610b9d565b810181811067ffffffffffffffff82111715610c0557610c04610bae565b5b80604052505050565b6000610c186109fc565b9050610c248282610bdd565b919050565b600067ffffffffffffffff821115610c4457610c43610bae565b5b610c4d82610b9d565b9050602081019050919050565b82818337600083830152505050565b6000610c7c610c7784610c29565b610c0e565b905082815260208101848484011115610c9857610c97610b98565b5b610ca3848285610c5a565b509392505050565b600082601f830112610cc057610cbf610b93565b5b8135610cd0848260208601610c69565b91505092915050565b610ce281610b34565b8114610ced57600080fd5b50565b600081359050610cff81610cd9565b92915050565b600080600060608486031215610d1e57610d1d610a06565b5b600084013567ffffffffffffffff811115610d3c57610d3b610a0b565b5b610d4886828701610cab565b9350506020610d5986828701610cf0565b9250506040610d6a86828701610a59565b9150509250925092565b600080fd5b600080fd5b60008083601f840112610d9457610d93610b93565b5b8235905067ffffffffffffffff811115610db157610db0610d74565b5b602083019150836001820283011115610dcd57610dcc610d79565b5b9250929050565b600080600080600060808688031215610df057610def610a06565b5b6000610dfe88828901610a59565b955050602086013567ffffffffffffffff811115610e1f57610e1e610a0b565b5b610e2b88828901610d7e565b94509450506040610e3e88828901610cf0565b925050606086013567ffffffffffffffff811115610e5f57610e5e610a0b565b5b610e6b88828901610cab565b9150509295509295909350565b600082825260208201905092915050565b7f6f6e6c7947656c61746f52656c61794552433237373100000000000000000000600082015250565b6000610ebf601683610e78565b9150610eca82610e89565b602082019050919050565b60006020820190508181036000830152610eee81610eb2565b9050919050565b600081519050919050565b600081905092915050565b60005b83811015610f29578082015181840152602081019050610f0e565b60008484015250505050565b6000610f4082610ef5565b610f4a8185610f00565b9350610f5a818560208601610f0b565b80840191505092915050565b6000610f728284610f35565b915081905092915050565b7f4e487b7100000000000000000000000000000000000000000000000000000000600052601160045260246000fd5b6000610fb782610b34565b9150610fc283610b34565b9250828201905080821115610fda57610fd9610f7d565b5b92915050565b610fe981610ad1565b82525050565b60006020820190506110046000830184610fe0565b92915050565b7f73657373696f6e4e6f74496e6974000000000000000000000000000000000000600082015250565b6000611040600e83610e78565b915061104b8261100a565b602082019050919050565b6000602082019050818103600083015261106f81611033565b9050919050565b7f74656d704b65794e6f74416c6c6f776564000000000000000000000000000000600082015250565b60006110ac601183610e78565b91506110b782611076565b602082019050919050565b600060208201905081810360008301526110db8161109f565b9050919050565b7f74656d704b657945787069726564000000000000000000000000000000000000600082015250565b6000611118600e83610e78565b9150611123826110e2565b602082019050919050565b600060208201905081810360008301526111478161110b565b9050919050565b600081905092915050565b6000611165838561114e565b9350611172838584610c5a565b82840190509392505050565b60008160601b9050919050565b60006111968261117e565b9050919050565b60006111a88261118b565b9050919050565b6111c06111bb82610a30565b61119d565b82525050565b60006111d3828587611159565b91506111df82846111af565b601482019150819050949350505050565b60006040820190506112056000830185610b4d565b6112126020830184610b3e565b9392505050565b600081519050919050565b600061122f82611219565b611239818561114e565b9350611249818560208601610f0b565b80840191505092915050565b60006112618284611224565b915081905092915050565b7f4e487b7100000000000000000000000000000000000000000000000000000000600052601260045260246000fd5b60006112a682610b34565b91506112b183610b34565b9250826112c1576112c061126c565b5b828206905092915050565b60006112d88285610f35565b91506112e48284610f35565b91508190509392505050565b60006112fb82610ef5565b6113058185610e78565b9350611315818560208601610f0b565b61131e81610b9d565b840191505092915050565b6000602082019050818103600083015261134381846112f0565b905092915050565b7f4e6f4572726f7253656c6563746f720000000000000000000000000000000000600082015250565b6000611381600f83610f00565b915061138c8261134b565b600f82019050919050565b60006113a38284610f35565b91506113ae82611374565b915081905092915050565b7f556e657870656374656452657475726e64617461000000000000000000000000600082015250565b60006113ef601483610f00565b91506113fa826113b9565b601482019050919050565b60006114118284610f35565b915061141c826113e2565b91508190509291505056fea2646970667358221220601fd90c73804522a4526b788f4ca29bf4bb5b073f15c28cef3cbf78fbcc0fd864736f6c63430008130033",
  "devdoc": {
    "kind": "dev",
    "methods": {},
    "version": 1
  },
  "userdoc": {
    "kind": "user",
    "methods": {},
    "version": 1
  },
  "storageLayout": {
    "storage": [
      {
        "astId": 90,
        "contract": "contracts/SessionKeyGate.sol:SessionKeyGate",
        "label": "sessions",
        "offset": 0,
        "slot": "0",
        "type": "t_mapping(t_bytes32,t_struct(SessionGate)83_storage)"
      }
    ],
    "types": {
      "t_address": {
        "encoding": "inplace",
        "label": "address",
        "numberOfBytes": "20"
      },
      "t_bytes32": {
        "encoding": "inplace",
        "label": "bytes32",
        "numberOfBytes": "32"
      },
      "t_mapping(t_bytes32,t_struct(SessionGate)83_storage)": {
        "encoding": "mapping",
        "key": "t_bytes32",
        "label": "mapping(bytes32 => struct SessionGate)",
        "numberOfBytes": "32",
        "value": "t_struct(SessionGate)83_storage"
      },
      "t_struct(SessionGate)83_storage": {
        "encoding": "inplace",
        "label": "struct SessionGate",
        "members": [
          {
            "astId": 78,
            "contract": "contracts/SessionKeyGate.sol:SessionKeyGate",
            "label": "end",
            "offset": 0,
            "slot": "0",
            "type": "t_uint256"
          },
          {
            "astId": 80,
            "contract": "contracts/SessionKeyGate.sol:SessionKeyGate",
            "label": "user",
            "offset": 0,
            "slot": "1",
            "type": "t_address"
          },
          {
            "astId": 82,
            "contract": "contracts/SessionKeyGate.sol:SessionKeyGate",
            "label": "tempPublicKey",
            "offset": 0,
            "slot": "2",
            "type": "t_address"
          }
        ],
        "numberOfBytes": "96"
      },
      "t_uint256": {
        "encoding": "inplace",
        "label": "uint256",
        "numberOfBytes": "32"
      }
    }
  }
}